{
  "contractName": "Question",
  "abi": [
    {
      "constant": true,
      "inputs": [],
      "name": "content",
      "outputs": [
        {
          "name": "",
          "type": "string"
        }
      ],
      "payable": false,
      "stateMutability": "view",
      "type": "function"
    },
    {
      "constant": true,
      "inputs": [],
      "name": "owner",
      "outputs": [
        {
          "name": "",
          "type": "address"
        }
      ],
      "payable": false,
      "stateMutability": "view",
      "type": "function"
    },
    {
      "inputs": [
        {
          "name": "sender",
          "type": "address"
        },
        {
          "name": "_content",
          "type": "string"
        }
      ],
      "payable": false,
      "stateMutability": "nonpayable",
      "type": "constructor"
    },
    {
      "constant": false,
      "inputs": [
        {
          "name": "_content",
          "type": "string"
        }
      ],
      "name": "updateContent",
      "outputs": [],
      "payable": false,
      "stateMutability": "nonpayable",
      "type": "function"
    }
  ],
  "bytecode": "0x6060604052341561000f57600080fd5b60405161049038038061049083398101604052808051906020019091908051820191905050816000806101000a81548173ffffffffffffffffffffffffffffffffffffffff021916908373ffffffffffffffffffffffffffffffffffffffff160217905550806001908051906020019061008a929190610092565b505050610137565b828054600181600116156101000203166002900490600052602060002090601f016020900481019282601f106100d357805160ff1916838001178555610101565b82800160010185558215610101579182015b828111156101005782518255916020019190600101906100e5565b5b50905061010e9190610112565b5090565b61013491905b80821115610130576000816000905550600101610118565b5090565b90565b61034a806101466000396000f300606060405260043610610057576000357c0100000000000000000000000000000000000000000000000000000000900463ffffffff168063339218d91461005c5780638a4d5a67146100b95780638da5cb5b14610147575b600080fd5b341561006757600080fd5b6100b7600480803590602001908201803590602001908080601f0160208091040260200160405190810160405280939291908181526020018383808284378201915050505050509190505061019c565b005b34156100c457600080fd5b6100cc6101b6565b6040518080602001828103825283818151815260200191508051906020019080838360005b8381101561010c5780820151818401526020810190506100f1565b50505050905090810190601f1680156101395780820380516001836020036101000a031916815260200191505b509250505060405180910390f35b341561015257600080fd5b61015a610254565b604051808273ffffffffffffffffffffffffffffffffffffffff1673ffffffffffffffffffffffffffffffffffffffff16815260200191505060405180910390f35b80600190805190602001906101b2929190610279565b5050565b60018054600181600116156101000203166002900480601f01602080910402602001604051908101604052809291908181526020018280546001816001161561010002031660029004801561024c5780601f106102215761010080835404028352916020019161024c565b820191906000526020600020905b81548152906001019060200180831161022f57829003601f168201915b505050505081565b6000809054906101000a900473ffffffffffffffffffffffffffffffffffffffff1681565b828054600181600116156101000203166002900490600052602060002090601f016020900481019282601f106102ba57805160ff19168380011785556102e8565b828001600101855582156102e8579182015b828111156102e75782518255916020019190600101906102cc565b5b5090506102f591906102f9565b5090565b61031b91905b808211156103175760008160009055506001016102ff565b5090565b905600a165627a7a7230582071303b05b3023beba046c4d7161538a3a9c80bd4d37c0ee353a967b44160a2bd0029",
  "source": "pragma solidity ^0.4.17;\n\ncontract Question {\n  address public owner;\n  string public content;\n\n  function Question(address sender, string _content) public {\n    owner = sender;\n    content = _content;\n  }\n\n  function updateContent(string _content) public {\n    content = _content;\n  }\n}\n",
  "sourcePath": "/Users/cohki0305/eth/question/contracts/Question.sol",
  "compiler": {
    "name": "solc",
    "version": "0.4.19+commit.c4cbbb05.Emscripten.clang"
  },
  "schemaVersion": "2.0.0",
  "updatedAt": "2018-04-08T10:23:42.726Z"
}