{
  "contractName": "QuestionFactory",
  "abi": [
    {
      "constant": true,
      "inputs": [
        {
          "name": "",
          "type": "uint256"
        }
      ],
      "name": "questions",
      "outputs": [
        {
          "name": "",
          "type": "address"
        }
      ],
      "payable": false,
      "stateMutability": "view",
      "type": "function"
    },
    {
      "constant": false,
      "inputs": [],
      "name": "kill",
      "outputs": [],
      "payable": false,
      "stateMutability": "nonpayable",
      "type": "function"
    },
    {
      "constant": true,
      "inputs": [],
      "name": "owner",
      "outputs": [
        {
          "name": "",
          "type": "address"
        }
      ],
      "payable": false,
      "stateMutability": "view",
      "type": "function"
    },
    {
      "constant": false,
      "inputs": [
        {
          "name": "newOwner",
          "type": "address"
        }
      ],
      "name": "transferOwnership",
      "outputs": [],
      "payable": false,
      "stateMutability": "nonpayable",
      "type": "function"
    },
    {
      "anonymous": false,
      "inputs": [
        {
          "indexed": true,
          "name": "previousOwner",
          "type": "address"
        },
        {
          "indexed": true,
          "name": "newOwner",
          "type": "address"
        }
      ],
      "name": "OwnershipTransferred",
      "type": "event"
    },
    {
      "constant": false,
      "inputs": [
        {
          "name": "content",
          "type": "string"
        }
      ],
      "name": "createQuestion",
      "outputs": [],
      "payable": false,
      "stateMutability": "nonpayable",
      "type": "function"
    },
    {
      "constant": true,
      "inputs": [],
      "name": "getQuestions",
      "outputs": [
        {
          "name": "",
          "type": "address[]"
        }
      ],
      "payable": false,
      "stateMutability": "view",
      "type": "function"
    }
  ],
  "bytecode": "0x6060604052336000806101000a81548173ffffffffffffffffffffffffffffffffffffffff021916908373ffffffffffffffffffffffffffffffffffffffff160217905550610b8a806100536000396000f300606060405260043610610078576000357c0100000000000000000000000000000000000000000000000000000000900463ffffffff16806331b1b9781461007d57806341c0e1b5146100e05780638da5cb5b146100f557806397221ab71461014a578063b3580c1e146101b4578063f2fde38b14610211575b600080fd5b341561008857600080fd5b61009e600480803590602001909190505061024a565b604051808273ffffffffffffffffffffffffffffffffffffffff1673ffffffffffffffffffffffffffffffffffffffff16815260200191505060405180910390f35b34156100eb57600080fd5b6100f3610289565b005b341561010057600080fd5b61010861031e565b604051808273ffffffffffffffffffffffffffffffffffffffff1673ffffffffffffffffffffffffffffffffffffffff16815260200191505060405180910390f35b341561015557600080fd5b61015d610343565b6040518080602001828103825283818151815260200191508051906020019060200280838360005b838110156101a0578082015181840152602081019050610185565b505050509050019250505060405180910390f35b34156101bf57600080fd5b61020f600480803590602001908201803590602001908080601f016020809104026020016040519081016040528093929190818152602001838380828437820191505050505050919050506103d7565b005b341561021c57600080fd5b610248600480803573ffffffffffffffffffffffffffffffffffffffff16906020019091905050610504565b005b60018181548110151561025957fe5b90600052602060002090016000915054906101000a900473ffffffffffffffffffffffffffffffffffffffff1681565b6000809054906101000a900473ffffffffffffffffffffffffffffffffffffffff1673ffffffffffffffffffffffffffffffffffffffff163373ffffffffffffffffffffffffffffffffffffffff161415156102e457600080fd5b6000809054906101000a900473ffffffffffffffffffffffffffffffffffffffff1673ffffffffffffffffffffffffffffffffffffffff16ff5b6000809054906101000a900473ffffffffffffffffffffffffffffffffffffffff1681565b61034b610659565b60018054806020026020016040519081016040528092919081815260200182805480156103cd57602002820191906000526020600020905b8160009054906101000a900473ffffffffffffffffffffffffffffffffffffffff1673ffffffffffffffffffffffffffffffffffffffff1681526020019060010190808311610383575b5050505050905090565b600033826103e361066d565b808373ffffffffffffffffffffffffffffffffffffffff1673ffffffffffffffffffffffffffffffffffffffff16815260200180602001828103825283818151815260200191508051906020019080838360005b83811015610452578082015181840152602081019050610437565b50505050905090810190601f16801561047f5780820380516001836020036101000a031916815260200191505b509350505050604051809103906000f080151561049b57600080fd5b9050600180548060010182816104b1919061067d565b9160005260206000209001600083909190916101000a81548173ffffffffffffffffffffffffffffffffffffffff021916908373ffffffffffffffffffffffffffffffffffffffff160217905550505050565b6000809054906101000a900473ffffffffffffffffffffffffffffffffffffffff1673ffffffffffffffffffffffffffffffffffffffff163373ffffffffffffffffffffffffffffffffffffffff1614151561055f57600080fd5b600073ffffffffffffffffffffffffffffffffffffffff168173ffffffffffffffffffffffffffffffffffffffff161415151561059b57600080fd5b8073ffffffffffffffffffffffffffffffffffffffff166000809054906101000a900473ffffffffffffffffffffffffffffffffffffffff1673ffffffffffffffffffffffffffffffffffffffff167f8be0079c531659141344cd1fd0a4f28419497f9722a3daafe3b4186f6b6457e060405160405180910390a3806000806101000a81548173ffffffffffffffffffffffffffffffffffffffff021916908373ffffffffffffffffffffffffffffffffffffffff16021790555050565b602060405190810160405280600081525090565b604051610490806106cf83390190565b8154818355818115116106a4578183600052602060002091820191016106a391906106a9565b5b505050565b6106cb91905b808211156106c75760008160009055506001016106af565b5090565b9056006060604052341561000f57600080fd5b60405161049038038061049083398101604052808051906020019091908051820191905050816000806101000a81548173ffffffffffffffffffffffffffffffffffffffff021916908373ffffffffffffffffffffffffffffffffffffffff160217905550806001908051906020019061008a929190610092565b505050610137565b828054600181600116156101000203166002900490600052602060002090601f016020900481019282601f106100d357805160ff1916838001178555610101565b82800160010185558215610101579182015b828111156101005782518255916020019190600101906100e5565b5b50905061010e9190610112565b5090565b61013491905b80821115610130576000816000905550600101610118565b5090565b90565b61034a806101466000396000f300606060405260043610610057576000357c0100000000000000000000000000000000000000000000000000000000900463ffffffff168063339218d91461005c5780638a4d5a67146100b95780638da5cb5b14610147575b600080fd5b341561006757600080fd5b6100b7600480803590602001908201803590602001908080601f0160208091040260200160405190810160405280939291908181526020018383808284378201915050505050509190505061019c565b005b34156100c457600080fd5b6100cc6101b6565b6040518080602001828103825283818151815260200191508051906020019080838360005b8381101561010c5780820151818401526020810190506100f1565b50505050905090810190601f1680156101395780820380516001836020036101000a031916815260200191505b509250505060405180910390f35b341561015257600080fd5b61015a610254565b604051808273ffffffffffffffffffffffffffffffffffffffff1673ffffffffffffffffffffffffffffffffffffffff16815260200191505060405180910390f35b80600190805190602001906101b2929190610279565b5050565b60018054600181600116156101000203166002900480601f01602080910402602001604051908101604052809291908181526020018280546001816001161561010002031660029004801561024c5780601f106102215761010080835404028352916020019161024c565b820191906000526020600020905b81548152906001019060200180831161022f57829003601f168201915b505050505081565b6000809054906101000a900473ffffffffffffffffffffffffffffffffffffffff1681565b828054600181600116156101000203166002900490600052602060002090601f016020900481019282601f106102ba57805160ff19168380011785556102e8565b828001600101855582156102e8579182015b828111156102e75782518255916020019190600101906102cc565b5b5090506102f591906102f9565b5090565b61031b91905b808211156103175760008160009055506001016102ff565b5090565b905600a165627a7a7230582071303b05b3023beba046c4d7161538a3a9c80bd4d37c0ee353a967b44160a2bd0029a165627a7a723058208752aa9e128eb219dfeff88a894e71762e28297c82a765fc6e0cfc695f3549890029",
  "source": "pragma solidity ^0.4.17;\n\nimport \"./Ownable.sol\";\nimport \"./Question.sol\";\n\ncontract QuestionFactory is Ownable {\n  address[] public questions;\n\n  function createQuestion(string content) public {\n    address question = new Question(msg.sender, content);\n    questions.push(question);\n  }\n\n  function getQuestions() public view returns(address[]){\n    return questions;\n  }\n}\n",
  "sourcePath": "/Users/cohki0305/eth/question/contracts/QuestionFactory.sol",
  "compiler": {
    "name": "solc",
    "version": "0.4.19+commit.c4cbbb05.Emscripten.clang"
  },
  "schemaVersion": "2.0.0",
  "updatedAt": "2018-04-08T05:17:04.179Z"
}